C D2102  25 MAR 2021    © COPYRIGHT CORREIOS                 LOGRADOUROS                                                                                                                                                                                                                                                                                                                                                                                                                                                                                                                                                                                 
KDF      00001778Brasília                                                                     00001238Recanto das Emas                                                             00000000                                                                        Quadra                                                                                                     00046892Quadra                                                                  Quadra                                                                  72604045S117        Conjunto                            14         0005137400029990NU72604045                      
KDF      00001778Brasília                                                                     00001238Recanto das Emas                                                             00000000                                                                        Quadra                                                                                                     00046892Quadra                                                                  Quadra                                                                  72604060S117        Conjunto                            19         0005137400029996NU72604060                      
KDF      00001778Brasília                                                                     00001238Recanto das Emas                                                             00000000                                                                        Quadra                                                                                                     00046892Quadra                                                                  Quadra                                                                  72604075S117        Conjunto                            24         0005137400030001NU72604075                      
KDF      00001778Brasília                                                                     00001238Recanto das Emas                                                             00000000                                                                        Quadra                                                                                                     00046892Quadra                                                                  Quadra                                                                  72604039S117        Praça                               s/n        0005137400029994NU72604039                      
KDF      00001778Brasília                                                                     00001238Recanto das Emas                                                             00000000                                                                        Quadra                                                                                                     00046892Quadra                                                                  Quadra                                                                  72604063S117        Conjunto                            20         0005137400029997NU72604063                      
KDF      00001778Brasília                                                                     00001238Recanto das Emas                                                             00000000                                                                        Quadra                                                                                                     00046892Quadra                                                                  Quadra                                                                  72604072S117        Conjunto                            23         0005137400030000NU72604072                      
KDF      00001778Brasília                                                                     00001238Recanto das Emas                                                             00000000                                                                        Quadra                                                                                                     00046892Quadra                                                                  Quadra                                                                  72604030S117        Conjunto                            10         0005137400029981NU72604030                      
KDF      00001778Brasília                                                                     00001238Recanto das Emas                                                             00000000                                                                        Quadra                                                                                                     00046892Quadra                                                                  Quadra                                                                  72604054S117        Conjunto                            17         0005137400029993NU72604054                      
KDF      00001778Brasília                                                                     00001238Recanto das Emas                                                             00000000                                                                        Quadra                                                                                                     00046892Quadra                                                                  Quadra                                                                  72604066S117        Conjunto                            21         0005137400029998NU72604066                      
KDF      00001778Brasília                                                                     00001238Recanto das Emas                                                             00000000                                                                        Quadra                                                                                                     00046892Quadra                                                                  Quadra                                                                  72604081S117        Conjunto                            26         0005137400030003NU72604081                      
KDF      00001778Brasília                                                                     00001238Recanto das Emas                                                             00000000                                                                        Quadra                                                                                                     00046892Quadra                                                                  Quadra                                                                  72604115S118        Conjunto                            5          0005137500030010NU72604115                      
KDF      00001778Brasília                                                                     00001238Recanto das Emas                                                             00000000                                                                        Quadra                                                                                                     00046892Quadra                                                                  Quadra                                                                  72604118S118        Conjunto                            6          0005137500030011NU72604118                      
KDF      00001778Brasília                                                                     00001238Recanto das Emas                                                             00000000                                                                        Quadra                                                                                                     00046892Quadra                                                                  Quadra                                                                  72604124S118        Conjunto                            8          0005137500030013NU72604124                      
KDF      00001778Brasília                                                                     00001238Recanto das Emas                                                             00000000                                                                        Quadra                                                                                                     00046892Quadra                                                                  Quadra                                                                  72604109S118        Conjunto                            3          0005137500030008NU72604109                      
KDF      00001778Brasília                                                                     00001238Recanto das Emas                                                             00000000                                                                        Quadra                                                                                                     00046892Quadra                                                                  Quadra                                                                  72604103S118        Conjunto                            1          0005137500030006NU72604103                      
KDF      00001778Brasília                                                                     00001238Recanto das Emas                                                             00000000                                                                        Quadra                                                                                                     00046892Quadra                                                                  Quadra                                                                  72604106S118        Conjunto                            2          0005137500030007NU72604106                      
KDF      00001778Brasília                                                                     00001238Recanto das Emas                                                             00000000                                                                        Quadra                                                                                                     00046892Quadra                                                                  Quadra                                                                  72604127S118        Praça                               s/n        0005137500030005NU72604127                      
KDF      00001778Brasília                                                                     00001238Recanto das Emas                                                             00000000                                                                        Quadra                                                                                                     00046892Quadra                                                                  Quadra                                                                  72604112S118        Conjunto                            4          0005137500030009NU72604112                      
KDF      00001778Brasília                                                                     00001238Recanto das Emas                                                             00000000                                                                        Quadra                                                                                                     00046892Quadra                                                                  Quadra                                                                  72604121S118        Conjunto                            7          0005137500030012NU72604121                      
KDF      00001778Brasília                                                                     00051983Setor Habitacional Sol Nascente (Ceilândia)                                  00000000                                                                        Quadra                                                                                                     00983424Quadra                                                                  Quadra                                                                  72246606N209        Conjunto                            C          0004775500029779NU72246606                      
KDF      00001778Brasília                                                                     00051983Setor Habitacional Sol Nascente (Ceilândia)                                  00000000                                                                        Quadra                                                                                                     00983424Quadra                                                                  Quadra                                                                  72246632N209        Conjunto                            N          0004775500029790NU72246632                      
KDF      00001778Brasília                                                                     00051983Setor Habitacional Sol Nascente (Ceilândia)                                  00000000                                                                        Quadra                                                                                                     00983424Quadra                                                                  Quadra                                                                  72246628N209        Conjunto                            L          0004775500029788NU72246628                      
KDF      00001778Brasília                                                                     00051983Setor Habitacional Sol Nascente (Ceilândia)                                  00000000                                                                        Quadra                                                                                                     00983424Quadra                                                                  Quadra                                                                  72246608N209        Conjunto                            D          0004775500029780NU72246608                      
KDF      00001778Brasília                                                                     00051983Setor Habitacional Sol Nascente (Ceilândia)                                  00000000                                                                        Quadra                                                                                                     00983424Quadra                                                                  Quadra                                                                  72246620N209        Conjunto                            I          0004775500029785NU72246620                      
KDF      00001778Brasília                                                                     00051983Setor Habitacional Sol Nascente (Ceilândia)                                  00000000                                                                        Quadra                                                                                                     00983424Quadra                                                                  Quadra                                                                  72246622N209        Conjunto                            J          0004775500029786NU72246622                      
KDF      00001778Brasília                                                                     00051983Setor Habitacional Sol Nascente (Ceilândia)                                  00000000                                                                        Quadra                                                                                                     00983424Quadra                                                                  Quadra                                                                  72246602N209        Conjunto                            A          0004775500029777NU72246602                      
KDF      00001778Brasília                                                                     00051983Setor Habitacional Sol Nascente (Ceilândia)                                  00000000                                                                        Quadra                                                                                                     00983424Quadra                                                                  Quadra                                                                  72246610N209        Conjunto                            E          0004775500029781NU72246610                      
KDF      00001778Brasília                                                                     00051983Setor Habitacional Sol Nascente (Ceilândia)                                  00000000                                                                        Quadra                                                                                                     00983424Quadra                                                                  Quadra                                                                  72246604N209        Conjunto                            B          0004775500029778NU72246604                      
KDF      00001778Brasília                                                                     00051983Setor Habitacional Sol Nascente (Ceilândia)                                  00000000                                                                        Quadra                                                                                                     00983424Quadra                                                                  Quadra                                                                  72246614N209        Conjunto                            G          0004775500029783NU72246614                      
KDF      00001778Brasília                                                                     00051983Setor Habitacional Sol Nascente (Ceilândia)                                  00000000                                                                        Quadra                                                                                                     00983424Quadra                                                                  Quadra                                                                  72246618N209        Conjunto                            H          0004775500029784NU72246618                      
KDF      00001778Brasília                                                                     00051983Setor Habitacional Sol Nascente (Ceilândia)                                  00000000                                                                        Quadra                                                                                                     00983424Quadra                                                                  Quadra                                                                  72246624N209        Conjunto                            K          0004775500029787NU72246624                      
KDF      00001778Brasília                                                                     00051983Setor Habitacional Sol Nascente (Ceilândia)                                  00000000                                                                        Quadra                                                                                                     00983424Quadra                                                                  Quadra                                                                  72246612N209        Conjunto                            F          0004775500029782NU72246612                      
KDF      00001778Brasília                                                                     00051983Setor Habitacional Sol Nascente (Ceilândia)                                  00000000                                                                        Quadra                                                                                                     00983424Quadra                                                                  Quadra                                                                  72246630N209        Conjunto                            M          0004775500029789NU72246630                      
KDF      00001778Brasília                                                                     00051983Setor Habitacional Sol Nascente (Ceilândia)                                  00000000                                                                        Quadra                                                                                                     00983424Quadra                                                                  Quadra                                                                  72246508N105        Conjunto                            C          0004775400029720NU72246508                      
KDF      00001778Brasília                                                                     00051983Setor Habitacional Sol Nascente (Ceilândia)                                  00000000                                                                        Quadra                                                                                                     00983424Quadra                                                                  Quadra                                                                  72246534N105        Conjunto                            L          0004775400029741NU72246534                      
KDF      00001778Brasília                                                                     00051983Setor Habitacional Sol Nascente (Ceilândia)                                  00000000                                                                        Quadra                                                                                                     00983424Quadra                                                                  Quadra                                                                  72246540N105        Conjunto                            N          0004775400029761NU72246540                      
KDF      00001778Brasília                                                                     00051983Setor Habitacional Sol Nascente (Ceilândia)                                  00000000                                                                        Quadra                                                                                                     00983424Quadra                                                                  Quadra                                                                  72246542N105        Conjunto                            O          0004775400029762NU72246542                      
KDF      00001778Brasília                                                                     00051983Setor Habitacional Sol Nascente (Ceilândia)                                  00000000                                                                        Quadra                                                                                                     00983424Quadra                                                                  Quadra                                                                  72246572N105        Conjunto                            W2         0004775400029773NU72246572                      
KDF      00001778Brasília                                                                     00051983Setor Habitacional Sol Nascente (Ceilândia)                                  00000000                                                                        Quadra                                                                                                     00983424Quadra                                                                  Quadra                                                                  72246506N105        Conjunto                            B2         0004775400029719NU72246506                      
KDF      00001778Brasília                                                                     00051983Setor Habitacional Sol Nascente (Ceilândia)                                  00000000                                                                        Quadra                                                                                                     00983424Quadra                                                                  Quadra                                                                  72246568N105        Conjunto                            V2         0004775400029771NU72246568                      
KDF      00001778Brasília                                                                     00051983Setor Habitacional Sol Nascente (Ceilândia)                                  00000000                                                                        Quadra                                                                                                     00983424Quadra                                                                  Quadra                                                                  72246570N105        Conjunto                            W1         0004775400029772NU72246570                      
KDF      00001778Brasília                                                                     00051983Setor Habitacional Sol Nascente (Ceilândia)                                  00000000                                                                        Quadra                                                                                                     00983424Quadra                                                                  Quadra                                                                  72246566N105        Conjunto                            V1         0004775400029770NU72246566                      
KDF      00001778Brasília                                                                     00051983Setor Habitacional Sol Nascente (Ceilândia)                                  00000000                                                                        Quadra                                                                                                     00983424Quadra                                                                  Quadra                                                                  72246580N105        Conjunto                            Z          0004775400029776NU72246580                      
KDF      00001778Brasília                                                                     00051983Setor Habitacional Sol Nascente (Ceilândia)                                  00000000                                                                        Quadra                                                                                                     00983424Quadra                                                                  Quadra                                                                  72246510N105        Conjunto                            D          0004775400029721NU72246510                      
KDF      00001778Brasília                                                                     00051983Setor Habitacional Sol Nascente (Ceilândia)                                  00000000                                                                        Quadra                                                                                                     00983424Quadra                                                                  Quadra                                                                  72246524N105        Conjunto                            I          0004775400029738NU72246524                      
KDF      00001778Brasília                                                                     00051983Setor Habitacional Sol Nascente (Ceilândia)                                  00000000                                                                        Quadra                                                                                                     00983424Quadra                                                                  Quadra                                                                  72246560N105        Conjunto                            T1         0004775400029767NU72246560                      
KDF      00001778Brasília                                                                     00051983Setor Habitacional Sol Nascente (Ceilândia)                                  00000000                                                                        Quadra                                                                                                     00983424Quadra                                                                  Quadra                                                                  72246502N105        Conjunto                            A          0004775400029717NU72246502                      
KDF      00001778Brasília                                                                     00051983Setor Habitacional Sol Nascente (Ceilândia)                                  00000000                                                                        Quadra                                                                                                     00983424Quadra                                                                  Quadra                                                                  72246504N105        Conjunto                            B1         0004775400029718NU72246504                      
SRS      00007880Montenegro                                                                   00075059Municipal                                                                    00000000                                                                        Rua                                                                                                        01140488Torbjorn Weibull                                                        R Torbjorn Weibull                                                      92523870N2          1204       P00167880SU92523870                                                                 
SRS      00007880Montenegro                                                                   00075061Timbauva                                                                     00000000                                                                        Rua                                                                                                        01140488Torbjorn Weibull                                                        R Torbjorn Weibull                                                      92524460N1205       99998      A00167881SU92524460                                                                 
SPE      00005406Recife                                                                       00007358Jordão                                                                       00000000                                                                        Rua                                                                                                        00206142Vinte e Dois de Agosto                                                  R Vinte e D de Agosto                                                   51250090N1          99998      A00169140SU51250090                                                                 
SSP      00009104Duartina                                                                     00035609Centro                                                                       00000000                                                                        Rua                                                                                                        01149711Theófilo Cordovil                                                       R Theófilo Cordovil                                                     17470005N1          99998      A00169344SU17470005                                                                 
SSP      00009104Duartina                                                                     00075780Residencial Julieta                                                          00000000                                                                        Rua                                                                                                        01149711Theófilo Cordovil                                                       R Theófilo Cordovil                                                     17470134N1          99998      A00169345SU17470134                                                                 
SRS      00008180Sapiranga                                                                    00060584Industrial                                                                   00000000                                                                        Rua                                                                                                        0092253219 de Julho                                                             R 19 de Julho                                                           93813370N1          1200       A00119968SU93813370                                                                 
SRS      00008180Sapiranga                                                                    00060584Industrial                                                                   00000000                                                                        Rua                                                                                                        0092253219 de Julho                                                             R 19 de Julho                                                           93813800N1201       99998      A00119969SU93813800                                                                 
SMT      00004347Cuiabá                                                                       00030070Jardim Aclimação                                                             00000000                                                                        Avenida                      Historiador                                                                   00154291Rubens de Mendonça                                                      Av Histo Rubens de Mendonça                                             78050280S1          99998      A00128019SU78050280                                                                 
SMT      00004347Cuiabá                                                                       00048644Centro Político Administrativo                                               00000000                                                                        Avenida                      Historiador                                                                   00154291Rubens de Mendonça                                                      Av Histo Rubens de Mendonça                                             78049100S2          99998      P00128020SU78049100                                                                 
SMT      00004347Cuiabá                                                                       00006499Araés                                                                        00000000                                                                        Avenida                      Historiador                                                                   00154291Rubens de Mendonça                                                      Av Histo Rubens de Mendonça                                             78005725S1          99998      A00128021SU78005725                                                                 
SMT      00004347Cuiabá                                                                       00006525Alvorada                                                                     00000000                                                                        Avenida                      Historiador                                                                   00154291Rubens de Mendonça                                                      Av Histo Rubens de Mendonça                                             78048340S1          99998      A00128022SU78048340                                                                 
SMT      00004347Cuiabá                                                                       00048644Centro Político Administrativo                                               00000000                                                                        Avenida                      Historiador                                                                   00154291Rubens de Mendonça                                                      Av Histo Rubens de Mendonça                                             78049090S1          99999      I00128023SU78049090                                                                 
SMT      00004347Cuiabá                                                                       00006546Novo Paraíso                                                                 00000000                                                                        Avenida                      Historiador                                                                   00154291Rubens de Mendonça                                                      Av Histo Rubens de Mendonça                                             78055725S1          99998      A00128024SU78055725                                                                 
SRS      00007823Lajeado                                                                      00032102Centro                                                                       00000000                                                                        Rua                                                                                                        00946769Carlos Spohr Filho                                                      R Carlos S Filho                                                        95900116N1          500        A00128786SU95900116                                                                 
SRS      00007823Lajeado                                                                      00061838Moinhos                                                                      00000000                                                                        Rua                                                                                                        00946769Carlos Spohr Filho                                                      R Carlos S Filho                                                        95901034N501        1550       A00128787SU95901034                                                                 
SRS      00007823Lajeado                                                                      00061838Moinhos                                                                      00000000                                                                        Rua                                                                                                        00946769Carlos Spohr Filho                                                      R Carlos S Filho                                                        95901178N1551       99998      A00128788SU95901178                                                                 
SGO      00002174Goiânia                                                                      00064350Residencial Acrópole II                                                      00000000                                                                        Rua                                                                                                        00637111Maria Carolina de Jesus                                                 R Maria Carolina de Jesus                                               74358148N1          99998      A00141088SU74358148                                                                 
SMG      00003486Nova Serrana                                                                 00067654Jardim Europa I                                                              00000000                                                                        Rua                                                                                                        01042359Luzia Coelho do Amaral                                                  R Luzia C do Amaral                                                     35520442N1          99998      A00155503SU35520442                                                                 
SMG      00003486Nova Serrana                                                                 00067655Jardim Europa II                                                             00000000                                                                        Rua                                                                                                        01042359Luzia Coelho do Amaral                                                  R Luzia C do Amaral                                                     35520492N1          99998      A00155504SU35520492                                                                 
SMG      00003486Nova Serrana                                                                 00067638Elisa Amaral                                                                 00000000                                                                        Avenida                                                                                                    01043223Sebastião Elias                                                         Av Sebastião Elias                                                      35527066N1          99998      A00156015SU35527066                                                                 
SMG      00003486Nova Serrana                                                                 00067614Ana Carolina                                                                 00000000                                                                        Avenida                                                                                                    01043223Sebastião Elias                                                         Av Sebastião Elias                                                      35527134N1          99998      A00156016SU35527134                                                                 
SMG      00003486Nova Serrana                                                                 00067670Mangabeiras                                                                  00000000                                                                        Rua                                                                                                        01043346Carlos Antônio Lino                                                     R Carlos A Lino                                                         35522482N1          99998      A00156076SU35522482                                                                 
SMG      00003486Nova Serrana                                                                 00067602Condomínio Reserva do Vale                                                   00000000                                                                        Rua                                                                                                        01043346Carlos Antônio Lino                                                     R Carlos A Lino                                                         35522352N1          99998      A00156077SU35522352                                                                 
NDF      00001778Brasília                                                                     00001238Recanto das Emas                                                             00000000                                                                        Quadra                                                                                                     00046892Quadra                                                                  Quadra                                                                  72604000S117        00051374NU72604000                                                                             
NDF      00001778Brasília                                                                     00001238Recanto das Emas                                                             00000000                                                                        Quadra                                                                                                     00046892Quadra                                                                  Quadra                                                                  72604100S118        00051375NU72604100                                                                             
NDF      00001778Brasília                                                                     00051983Setor Habitacional Sol Nascente (Ceilândia)                                  00000000                                                                        Quadra                                                                                                     00983424Quadra                                                                  Quadra                                                                  72246600N209        00047755NU72246600                                                                             
NDF      00001778Brasília                                                                     00051983Setor Habitacional Sol Nascente (Ceilândia)                                  00000000                                                                        Quadra                                                                                                     00983424Quadra                                                                  Quadra                                                                  72246500N105        00047754NU72246500                                                                             
KDF      00001778Brasília                                                                     00051983Setor Habitacional Sol Nascente (Ceilândia)                                  00000000                                                                        Quadra                                                                                                     00983424Quadra                                                                  Quadra                                                                  72246512N105        Conjunto                            E          0004775400029722NU72246512                      
KDF      00001778Brasília                                                                     00051983Setor Habitacional Sol Nascente (Ceilândia)                                  00000000                                                                        Quadra                                                                                                     00983424Quadra                                                                  Quadra                                                                  72246532N105        Conjunto                            K          0004775400029740NU72246532                      
KDF      00001778Brasília                                                                     00051983Setor Habitacional Sol Nascente (Ceilândia)                                  00000000                                                                        Quadra                                                                                                     00983424Quadra                                                                  Quadra                                                                  72246546N105        Conjunto                            P1         0004775400029763NU72246546                      
KDF      00001778Brasília                                                                     00051983Setor Habitacional Sol Nascente (Ceilândia)                                  00000000                                                                        Quadra                                                                                                     00983424Quadra                                                                  Quadra                                                                  72246556N105        Conjunto                            S1         0004775400029765NU72246556                      
KDF      00001778Brasília                                                                     00051983Setor Habitacional Sol Nascente (Ceilândia)                                  00000000                                                                        Quadra                                                                                                     00983424Quadra                                                                  Quadra                                                                  72246564N105        Conjunto                            U          0004775400029769NU72246564                      
KDF      00001778Brasília                                                                     00051983Setor Habitacional Sol Nascente (Ceilândia)                                  00000000                                                                        Quadra                                                                                                     00983424Quadra                                                                  Quadra                                                                  72246536N105        Conjunto                            M          0004775400029760NU72246536                      
KDF      00001778Brasília                                                                     00051983Setor Habitacional Sol Nascente (Ceilândia)                                  00000000                                                                        Quadra                                                                                                     00983424Quadra                                                                  Quadra                                                                  72246562N105        Conjunto                            T2         0004775400029768NU72246562                      
KDF      00001778Brasília                                                                     00051983Setor Habitacional Sol Nascente (Ceilândia)                                  00000000                                                                        Quadra                                                                                                     00983424Quadra                                                                  Quadra                                                                  72246574N105        Conjunto                            X          0004775400029774NU72246574                      
KDF      00001778Brasília                                                                     00051983Setor Habitacional Sol Nascente (Ceilândia)                                  00000000                                                                        Quadra                                                                                                     00983424Quadra                                                                  Quadra                                                                  72246550N105        Conjunto                            Q1         0004775400029759NU72246550                      
KDF      00001778Brasília                                                                     00051983Setor Habitacional Sol Nascente (Ceilândia)                                  00000000                                                                        Quadra                                                                                                     00983424Quadra                                                                  Quadra                                                                  72246558N105        Conjunto                            S2         0004775400029766NU72246558                      
KDF      00001778Brasília                                                                     00051983Setor Habitacional Sol Nascente (Ceilândia)                                  00000000                                                                        Quadra                                                                                                     00983424Quadra                                                                  Quadra                                                                  72246576N105        Conjunto                            Y          0004775400029775NU72246576                      
KDF      00001778Brasília                                                                     00051983Setor Habitacional Sol Nascente (Ceilândia)                                  00000000                                                                        Quadra                                                                                                     00983424Quadra                                                                  Quadra                                                                  72246516N105        Conjunto                            F1         0004775400029723NU72246516                      
KDF      00001778Brasília                                                                     00051983Setor Habitacional Sol Nascente (Ceilândia)                                  00000000                                                                        Quadra                                                                                                     00983424Quadra                                                                  Quadra                                                                  72246518N105        Conjunto                            F2         0004775400029724NU72246518                      
KDF      00001778Brasília                                                                     00051983Setor Habitacional Sol Nascente (Ceilândia)                                  00000000                                                                        Quadra                                                                                                     00983424Quadra                                                                  Quadra                                                                  72246520N105        Conjunto                            G          0004775400029725NU72246520                      
KDF      00001778Brasília                                                                     00051983Setor Habitacional Sol Nascente (Ceilândia)                                  00000000                                                                        Quadra                                                                                                     00983424Quadra                                                                  Quadra                                                                  72246522N105        Conjunto                            H          0004775400029737NU72246522                      
KDF      00001778Brasília                                                                     00051983Setor Habitacional Sol Nascente (Ceilândia)                                  00000000                                                                        Quadra                                                                                                     00983424Quadra                                                                  Quadra                                                                  72246526N105        Conjunto                            J          0004775400029739NU72246526                      
KDF      00001778Brasília                                                                     00051983Setor Habitacional Sol Nascente (Ceilândia)                                  00000000                                                                        Quadra                                                                                                     00983424Quadra                                                                  Quadra                                                                  72246548N105        Conjunto                            P2         0004775400029757NU72246548                      
KDF      00001778Brasília                                                                     00051983Setor Habitacional Sol Nascente (Ceilândia)                                  00000000                                                                        Quadra                                                                                                     00983424Quadra                                                                  Quadra                                                                  72246554N105        Conjunto                            R          0004775400029758NU72246554                      
KDF      00001778Brasília                                                                     00051983Setor Habitacional Sol Nascente (Ceilândia)                                  00000000                                                                        Quadra                                                                                                     00983424Quadra                                                                  Quadra                                                                  72246552N105        Conjunto                            Q2         0004775400029764NU72246552                      
KDF      00001778Brasília                                                                     00001238Recanto das Emas                                                             00000000                                                                        Quadra                                                                                                     00046892Quadra                                                                  Quadra                                                                  72604009S117        Conjunto                            3          0005137400029979NU72604009                      
KDF      00001778Brasília                                                                     00001238Recanto das Emas                                                             00000000                                                                        Quadra                                                                                                     00046892Quadra                                                                  Quadra                                                                  72604033S117        Conjunto                            11         0005137400029987NU72604033                      
KDF      00001778Brasília                                                                     00001238Recanto das Emas                                                             00000000                                                                        Quadra                                                                                                     00046892Quadra                                                                  Quadra                                                                  72604036S117        Conjunto                            12         0005137400029988NU72604036                      
KDF      00001778Brasília                                                                     00001238Recanto das Emas                                                             00000000                                                                        Quadra                                                                                                     00046892Quadra                                                                  Quadra                                                                  72604051S117        Conjunto                            16         0005137400029992NU72604051                      
KDF      00001778Brasília                                                                     00001238Recanto das Emas                                                             00000000                                                                        Quadra                                                                                                     00046892Quadra                                                                  Quadra                                                                  72604078S117        Conjunto                            25         0005137400030002NU72604078                      
KDF      00001778Brasília                                                                     00001238Recanto das Emas                                                             00000000                                                                        Quadra                                                                                                     00046892Quadra                                                                  Quadra                                                                  72604012S117        Conjunto                            4          0005137400029980NU72604012                      
KDF      00001778Brasília                                                                     00001238Recanto das Emas                                                             00000000                                                                        Quadra                                                                                                     00046892Quadra                                                                  Quadra                                                                  72604057S117        Conjunto                            18         0005137400029995NU72604057                      
KDF      00001778Brasília                                                                     00001238Recanto das Emas                                                             00000000                                                                        Quadra                                                                                                     00046892Quadra                                                                  Quadra                                                                  72604084S117        Conjunto                            27         0005137400030004NU72604084                      
KDF      00001778Brasília                                                                     00001238Recanto das Emas                                                             00000000                                                                        Quadra                                                                                                     00046892Quadra                                                                  Quadra                                                                  72604003S117        Conjunto                            1          0005137400029977NU72604003                      
KDF      00001778Brasília                                                                     00001238Recanto das Emas                                                             00000000                                                                        Quadra                                                                                                     00046892Quadra                                                                  Quadra                                                                  72604006S117        Conjunto                            2          0005137400029978NU72604006                      
KDF      00001778Brasília                                                                     00001238Recanto das Emas                                                             00000000                                                                        Quadra                                                                                                     00046892Quadra                                                                  Quadra                                                                  72604015S117        Conjunto                            5          0005137400029982NU72604015                      
KDF      00001778Brasília                                                                     00001238Recanto das Emas                                                             00000000                                                                        Quadra                                                                                                     00046892Quadra                                                                  Quadra                                                                  72604024S117        Conjunto                            8          0005137400029985NU72604024                      
KDF      00001778Brasília                                                                     00001238Recanto das Emas                                                             00000000                                                                        Quadra                                                                                                     00046892Quadra                                                                  Quadra                                                                  72604042S117        Conjunto                            13         0005137400029989NU72604042                      
KDF      00001778Brasília                                                                     00001238Recanto das Emas                                                             00000000                                                                        Quadra                                                                                                     00046892Quadra                                                                  Quadra                                                                  72604021S117        Conjunto                            7          0005137400029984NU72604021                      
KDF      00001778Brasília                                                                     00001238Recanto das Emas                                                             00000000                                                                        Quadra                                                                                                     00046892Quadra                                                                  Quadra                                                                  72604027S117        Conjunto                            9          0005137400029986NU72604027                      
KDF      00001778Brasília                                                                     00001238Recanto das Emas                                                             00000000                                                                        Quadra                                                                                                     00046892Quadra                                                                  Quadra                                                                  72604048S117        Conjunto                            15         0005137400029991NU72604048                      
KDF      00001778Brasília                                                                     00001238Recanto das Emas                                                             00000000                                                                        Quadra                                                                                                     00046892Quadra                                                                  Quadra                                                                  72604069S117        Conjunto                            22         0005137400029999NU72604069                      
KDF      00001778Brasília                                                                     00001238Recanto das Emas                                                             00000000                                                                        Quadra                                                                                                     00046892Quadra                                                                  Quadra                                                                  72604018S117        Conjunto                            6          0005137400029983NU72604018                      
SSP      00009005Caçapava                                                                     00016246Vila Resende                                                                 00000000                                                                        Rua                          Capitão                                                                       00376156Tomé Portes d'El-Rei                                                    R Cap Tomé P d'El-Rei                                                   12282170N1          186        A00023066SU12282170                                                                 
SSP      00009005Caçapava                                                                     00016246Vila Resende                                                                 00000000                                                                        Rua                          Capitão                                                                       00376156Tomé Portes d'El-Rei                                                    R Cap Tomé P d'El-Rei                                                   12282180N187        99999      A00023067SU12282180                                                                 
SSP      00009216Indaiatuba                                                                   00019149Vila Georgina                                                                00000000                                                                        Rua                                                                                                        00409907Ademar de Barros                                                        R Ademar de Barros                                                      13333140S1201       2168       A00024079SU13333140                                                                 
SSP      00009566Rio Claro                                                                    00023469Jardim Donângela                                                             00000000                                                                        Rua                                                                                                        004557104                                                                       R 4                                                                     13500030N1          604        A00027082SU13500030                                                                 
SSP      00009566Rio Claro                                                                    00023434Centro                                                                       00000000                                                                        Rua                                                                                                        004557104                                                                       R 4                                                                     13500170N605        1475       A00027084SU13500170                                                                 
SPI      00005721Teresina                                                                     00007451Aeroporto                                                                    00000000                                                                        Rua                          Desembargador                                                                 00209269Francisco Pires de Castro                                               R Des Francisco Pires de Castro     (Zona Norte)                        64003705N1          99998      A00088281SU64003705                                                                 
SGO      00002065Anápolis                                                                     00001901Jundiaí                                                                      00000000                                                                        Avenida                                                                                                    00064160Mato Grosso                                                             Av Mato Grosso                                                          75110585N281        1145       I00093187SU75110585                                                                 
SMA      00002475Imperatriz                                                                   00002874Vila Ipiranga                                                                00000000                                                                        Avenida                                                                                                    00842151Liberdade                                                               Av Liberdade                                                            65908069N1          99998      A00095948SU65908069                                                                 
SMA      00002475Imperatriz                                                                   00056603Vila João Castelo                                                            00000000                                                                        Avenida                                                                                                    00842151Liberdade                                                               Av Liberdade                                                            65908320N1          99998      A00095952SU65908320                                                                 
SPR      00005941Cascavel                                                                     00008353Coqueiral                                                                    00000000                                                                        Rua                                                                                                        00216431Francisco Bartnik                                                       R Francisco Bartnik                                                     85807550N1          1760       A00113830SU85807550                                                                 
SPR      00005941Cascavel                                                                     00008373Recanto Tropical                                                             00000000                                                                        Rua                                                                                                        00216431Francisco Bartnik                                                       R Francisco Bartnik                                                     85807145N1761       99999      A00113831SU85807145                                                                 
SSP      00008989Botucatu                                                                     00059673Lívia                                                                        00000000                                                                        Avenida                                                                                                    00906617Zumbi dos Palmares                                                      Av Zumbi dos Palmares                                                   18614032N2          99998      P00115344SU18614032                                                                 
SSP      00008989Botucatu                                                                     00059673Lívia                                                                        00000000                                                                        Avenida                                                                                                    00906617Zumbi dos Palmares                                                      Av Zumbi dos Palmares                                                   18614034N1          99999      I00115345SU18614034                                                                 
SSP      00009216Indaiatuba                                                                   00019070Jardim Rossignatti                                                           00000000                                                                        Rua                          Doutor                                                                        00410260Oswaldo Cruz                                                            R Dr Oswaldo Cruz                                                       13339020N1          559        A00043196SU13339020                                                                 
SSP      00009216Indaiatuba                                                                   00019007Cidade Nova                                                                  00000000                                                                        Rua                          Doutor                                                                        00410260Oswaldo Cruz                                                            R Dr Oswaldo Cruz                                                       13334010N560        99999      A00043197SU13334010                                                                 
SBA      00000988Salvador                                                                     00000716Itapuã                                                                       00000000                                                                        Rua                                                                                                        00027041Rafael Pastore Neto                                                     R Rafael P Neto                                                         41640280N1          99998      A00044638SU41640280                                                                 
SBA      00000988Salvador                                                                     00000628Alto do Coqueirinho                                                          00000000                                                                        Rua                                                                                                        00027041Rafael Pastore Neto                                                     R Rafael P Neto                                                         41615385N2          99999      A00044639SU41615385                                                                 
SSP      00009595Santa Bárbara D'Oeste                                                        00023672Jardim Barão                                                                 00000000                                                                        Avenida                                                                                                    00457650Barretos                                                                Av Barretos                                                             13453653N1          99998      A00053572SU13453653                                                                 
SSP      00009595Santa Bárbara D'Oeste                                                        00049201Jardim Vila Rica                                                             00000000                                                                        Avenida                                                                                                    00457650Barretos                                                                Av Barretos                                                             13453282N1          99998      A00053573SU13453282                                                                 
SRO      00007352Porto Velho                                                                  00050964Lagoinha                                                                     00000000                                                                        Rua                                                                                                        00308643Ana Caucaia                                                             R Ana Caucaia                                                           76829712N5803       5995       A00059918SU76829712                                                                 
SCE      00001347Fortaleza                                                                    00001009Bonsucesso                                                                   00000000                                                                        Rua                                                                                                        000403681º de Maio                                                              R 1º de Maio                                                            60541658N1          1300       A00078263SU60541658                                                                 
SCE      00001347Fortaleza                                                                    00001028Granja Portugal                                                              00000000                                                                        Rua                                                                                                        000403681º de Maio                                                              R 1º de Maio                                                            60541315N1301       1879       A00078265SU60541315                                                                 
SCE      00001347Fortaleza                                                                    00001028Granja Portugal                                                              00000000                                                                        Rua                                                                                                        000403681º de Maio                                                              R 1º de Maio                                                            60541312N1880       2800       A00078267SU60541312                                                                 
SCE      00001347Fortaleza                                                                    00053280Granja Lisboa                                                                00000000                                                                        Rua                                                                                                        000403681º de Maio                                                              R 1º de Maio                                                            60540455N2801       99998      A00078268SU60540455                                                                 
SCE      00001347Fortaleza                                                                    00043688Dom Lustosa                                                                  00000000                                                                        Rua                          Santa                                                                         00041136Filomena                                                                R Sta Filomena                                                          60526105N1          399        A00078616SU60526105                                                                 
SCE      00001347Fortaleza                                                                    00001029Henrique Jorge                                                               00000000                                                                        Rua                          Santa                                                                         00041136Filomena                                                                R Sta Filomena                                                          60521104N400        99998      A00078617SU60521104                                                                 
SSP      00009425Olímpia                                                                      00069778Jardim Cisoto                                                                00000000                                                                        Alameda                                                                                                    01079414Carlos Gomes                                                            Al Carlos Gomes                                                         15406015N1          539        A00161606SU15406015                                                                 
SSP      00009425Olímpia                                                                      00069779Jardim Paulista                                                              00000000                                                                        Alameda                                                                                                    01079414Carlos Gomes                                                            Al Carlos Gomes                                                         15406047N540        99998      A00161607SU15406047                                                                 
SSP      00009425Olímpia                                                                      00069771Jardim São Francisco                                                         00000000                                                                        Rua                       da                                                                               01079427Cavalhada                                                               R da Cavalhada                                                          15405123N1          99999      I00161557SU15405123                                                                 
SSP      00009425Olímpia                                                                      00069771Jardim São Francisco                                                         00000000                                                                        Rua                       da                                                                               01079427Cavalhada                                                               R da Cavalhada                                                          15405125N340        99998      P00161558SU15405125                                                                 
SSP      00009425Olímpia                                                                      00069770Jardim Centerville                                                           00000000                                                                        Rua                       da                                                                               01079427Cavalhada                                                               R da Cavalhada                                                          15405107N2          338        P00161560SU15405107                                                                 
SSP      00009425Olímpia                                                                      00069769Vila Miessa                                                                  00000000                                                                        Rua                                                                                                        01085364Bartholomeu Íttavo                                                      R Bartholomeu Íttavo                                                    15405096N1          299        I00161244SU15405096                                                                 
SSP      00009425Olímpia                                                                      00069771Jardim São Francisco                                                         00000000                                                                        Rua                                                                                                        01085364Bartholomeu Íttavo                                                      R Bartholomeu Íttavo                                                    15405130N2          99998      P00161245SU15405130                                                                 
SSP      00009425Olímpia                                                                      00069795Conjunto Habitacional Antônio José Trindade                                  00000000                                                                        Rua                       do                                                                               01085365Bem-te-vi                                                               R do Bem-te-vi                                                          15407444N1          158        A00161246SU15407444                                                                 
SSP      00009425Olímpia                                                                      00069796Menina Moça I                                                                00000000                                                                        Rua                       do                                                                               01085365Bem-te-vi                                                               R do Bem-te-vi                                                          15407464N159        99998      A00161247SU15407464                                                                 
SSP      00009425Olímpia                                                                      00069757Nova Eliza                                                                   00000000                                                                        Rua                                                                                                        01085432Benedito Silva Costa                                                    R Benedito S Costa                                                      15402274N131        198        A00161268SU15402274                                                                 
SSP      00009425Olímpia                                                                      00069758Jardim Santa Elisa                                                           00000000                                                                        Rua                                                                                                        01085432Benedito Silva Costa                                                    R Benedito S Costa                                                      15402284N1          130        A00161269SU15402284                                                                 
SSP      00009425Olímpia                                                                      00069687Jardim Toledo                                                                00000000                                                                        Rua                                                                                                        01085509Degasperi                                                               R Degasperi                                                             15400418N1          299        A00161308SU15400418                                                                 
SSP      00009425Olímpia                                                                      00069690Jardim Centenário                                                            00000000                                                                        Rua                                                                                                        01085509Degasperi                                                               R Degasperi                                                             15400676N300        99999      A00161311SU15400676                                                                 
SSP      00009425Olímpia                                                                      00069757Nova Eliza                                                                   00000000                                                                        Rua                                                                                                        01085510Casimiro Rodrigues Vilarinho                                            R Casimiro R Vilarinho                                                  15402272N100        213        A00161309SU15402272                                                                 
SSP      00009425Olímpia                                                                      00069758Jardim Santa Elisa                                                           00000000                                                                        Rua                                                                                                        01085510Casimiro Rodrigues Vilarinho                                            R Casimiro R Vilarinho                                                  15402286N1          99         A00161310SU15402286                                                                 
SSP      00009425Olímpia                                                                      00069764Jardim Álvaro Britto                                                         00000000                                                                        Rua                                                                                                        01085526Diógenes Breda                                                          R Diógenes Breda                                                        15404062N900        99998      A00161319SU15404062                                                                 
SSP      00009425Olímpia                                                                      00069763Jardim Glória                                                                00000000                                                                        Rua                                                                                                        01085526Diógenes Breda                                                          R Diógenes Breda                                                        15404002N1          899        A00161320SU15404002                                                                 
SSP      00009425Olímpia                                                                      00069795Conjunto Habitacional Antônio José Trindade                                  00000000                                                                        Rua                       do                                                                               01085551Colibri                                                                 R do Colibri                                                            15407440N1          158        A00161332SU15407440                                                                 
